:020000040800F2
:100000000050002075090008C509000873030008A6
:10001000750300087703000879030008000000005A
:100020000000000000000000000000007B0300084A
:10003000C509000800000000290400089103000819
:10004000C5090008C5090008C5090008C509000858
:10005000C5090008C5090008C5090008C509000848
:10006000C5090008C5090008C5090008C509000838
:10007000C5090008C5090008C5090008C509000828
:10008000C5090008C5090008C5090008C509000818
:10009000C5090008C5090008C5090008C509000808
:1000A000C5090008C5090008C5090008C5090008F8
:1000B000C5090008C5090008C5090008C5090008E8
:1000C000C5090008C5090008C5090008C5090008D8
:1000D000C5090008C5090008C5090008C5090008C8
:1000E000C5090008C509000800000000C50900088E
:1000F000C5090008C5090008C5090008C5090008A8
:10010000C5090008C5090008C5090008C509000897
:10011000C5090008C5090008C5090008C509000887
:10012000C5090008C5090008C5090008C509000877
:1001300010B5054C237833B9044B13B10448AFF321
:1001400000800123237010BD00000020000000008B
:10015000100A000808B5034B1BB103490348AFF36D
:10016000008008BD0000000004000020100A000804
:1001700010F8012B11F8013B012A28BF9A42F7D051
:10018000D01A7047002210B504460521104600F031
:1001900011FBC4F300120121002000F00BFBC4F39B
:1001A00040120221002000F005FBC4F3801203215D
:1001B000002000F0FFFAE2090421002000F0FAFA22
:1001C00001220621002000F0F5FA00220621104647
:1001D00000F0F0FA04F001020121002000F0EAFA38
:1001E000C4F340020221002000F0E4FAC4F38002CC
:1001F0000321002000F0DEFAC4F3C0020421002035
:1002000000F0D8FA01220621002000F0D3FABDE860
:10021000104000220621104600F0CCBA10B504466A
:1002200001220521002000F0C5FAC4F300120121CB
:10023000002000F0BFFAC4F340120221002000F0B9
:10024000B9FAC4F380120321002000F0B3FAE209E6
:100250000421002000F0AEFA01220621002000F067
:10026000A9FA00220621104600F0A4FA04F00102C7
:100270000121002000F09EFAC4F340020221002078
:1002800000F098FAC4F380020321002000F092FAF3
:10029000C4F3C0020421002000F08CFA01220621E0
:1002A000002000F087FABDE8104000220621104629
:1002B00000F080BA4FF4AF720023504382B0009335
:1002C00001900093009A019B9A4201D302B07047BB
:1002D000009B0133F5E7012307B58DF807309DF842
:1002E0000730062B1DD90F20FFF7E4FF0220FFF790
:1002F00049FF0220FFF7DEFF2820FFF743FF02201F
:10030000FFF7D8FF0C20FFF73DFF0620FFF73AFF6D
:100310000120FFF737FF022003B05DF804EBFFF781
:10032000C9BF012200209DF8071000F0DDF905206B
:10033000FFF7C0FF012200209DF8071000F03AFAF5
:100340009DF807300133DBB2C7E7FFF767BF03282B
:100350000DD8DFE800F00402080A4031C9B241F0CC
:100360008000FFF70FBF1431F8E75431F6E70021A2
:10037000F5E7FEE7FEE7FEE7FEE71EF0040F0CBF21
:10038000EFF30880EFF3098000F048B970470000F0
:1003900008B5054A137883F00103137000F064F97F
:1003A000BDE8084000F004B91C00002070B5C56825
:1003B000BDB10369ABB1D0E900468268964201D174
:1003C000A34210D005EB8303043B9A42116004F171
:1003D000010418BF043204600CBF856082600020F5
:1003E00070BD0320FCE70120FAE730B5C468B4B162
:1003F0000269A2B1D0E90135AB4212D01D6804EB0D
:1004000082020D60043A0168934201F1FF3118BF86
:10041000043301600CBF44604360002030BD032002
:10042000FCE70220FAE70000334BD3F8A021EFF3FA
:10043000098001469161D3F8A0118A69101F886173
:10044000214642F8041CD3F8A0118A69101F886164
:10045000294642F8041CD3F8A0118A69101F88614C
:10046000314642F8041CD3F8A0118A69101F886134
:10047000394642F8041CD3F8A0118A69101F88611C
:10048000414642F8041CD3F8A0118A69101F886104
:10049000494642F8041CD3F8A0118A69101F8861EC
:1004A000514642F8041CD3F8A0118A69101F8861D4
:1004B000594642F8041CD3F8A42122B1C3F8A02164
:1004C0000022C3F8A421D3F8A021936919688B46B0
:1004D00059688A4699688946D968884619690F46D5
:1004E00059690E4699690D46D9690C4620339361C6
:1004F000184680F3098870472000002070B50B4B28
:10050000D3F89C21013A7AB10021084B18685C6845
:10051000067925790131AE4288BFC3E90040914296
:1005200003F10403F2D3EDE770BD00BF200000200B
:1005300000232DE9F7430193FFF7E0FF1A4C204613
:1005400001A9FFF752FF0228F9D1184D00262F46C6
:100550004FF00309DFF85080D7F89C31B34211D92E
:100560002C68013694F83A2055F8043F002AF3D05D
:1005700093F83A204AB921460B48FFF717FF0323A7
:1005800084F83A3003B0BDE8F08322791B799A42AF
:10059000F1D306D121464046FFF708FF84F83A9090
:1005A000DAE7D9D9EEE700BFCC0100202000002017
:1005B000174810B50368174C73B9D4F8A01191F817
:1005C0003A304BB1012381F83A30FFF7EFFED4F80F
:1005D000A031C4F8A43110BD0F490D48FFF705FF45
:1005E0000122D4F8A43183F83A20D4F8A0111B7961
:1005F0000A799A42EFD191F83A30002BEBD00448B7
:10060000FFF7D4FE0322D4F8A03183F83A20E2E7C2
:10061000CC01002020000020C401002008B583691F
:1006200013F8023C012B02D9022B15D008BDFFF7AD
:100630007FFF0B4B93F8A821012AF7D1D3F8A00133
:1006400008491C30FFF794FD0028EFD0FFF7B0FFFA
:10065000BDE80840FFF79ABEBDE80840FFF768BF55
:1006600020000020280A00080E4830B5002104466A
:100670000225D4F89C318B4200D830BD50F8043BA1
:1006800093F83A2062B993F83C204AB91A6C013ABF
:10069000012A1A6404D183F83C2083F83A5002DF1F
:1006A0000131E6E720000020CAB9012809D002285C
:1006B0000DD0A0B901230A4A10318B40C2F810387E
:1006C0007047074B10318840C3F8100C704702295F
:1006D00005D801231031034AC9B28B40136170471A
:1006E0000000014000100140072910B52CD8012856
:1006F00010D002281CD060B90F202C4C8900D4F8EF
:100700000038884023EA000302FA01F10B43C4F8E1
:10071000003810BD0F20254C8900D4F8003C8840DB
:1007200023EA000302FA01F10B43C4F8003CF0E7AE
:100730000F201F4C89002368884023EA000302FA37
:1007400001F10B432360E4E7012812D002281FD0F7
:100750000028DED10F20154C0839D4F80438890060
:100760008840203123EA00038A401343C4F8043848
:10077000CFE70F200D4C0839D4F8043C890088409D
:10078000203123EA00038A401343C4F8043CC0E745
:100790000F20074C0839636889008840203123EA1C
:1007A00000038A4013436360B3E700BF00000140C9
:1007B00000100140012A30B41346044615D1012827
:1007C00008D002280BD018B9094A8B40C2F810385B
:1007D00030BC7047064B8C40C3F8104CF8E7022938
:1007E000F6D8044A8B401361F2E730BCFFF75CBFD8
:1007F0000000014000100140012809D002280BD060
:1008000068B9084BD3F80808C84000F001007047E9
:10081000044BD3F8080CF7E7034B9868F4E7002083
:10082000704700BF000001400010014010B50446B1
:10083000FFF7E2FF10B1012806D010BD2046BDE849
:1008400010400122FFF7B6BF2046BDE8104000224D
:10085000FFF72ABF0C4B1A6842F001021A601A68AF
:100860009107FCD55A6822F001025A605A6822F0BA
:1008700002025A601A68520758BF1A681A6822F4AE
:1008800000221A60704700BF00100240022A1CD0EC
:10089000032A37D0012A0AD102280AD003280ED011
:1008A000012804D1204B88405A6910435861012027
:1008B00070471D4B8A40D8690243DA61F7E71A4B4B
:1008C0008A40986902439A61F1E702280AD0032816
:1008D00010D00128EBD1144A8840536923EA000361
:1008E0005361E4E7012210488A40C36923EA020306
:1008F000C361DCE701220C488A40836923EA0203D2
:100900008361D4E7022808D00328D0D10123064A06
:100910008B40D0680343D360C9E70123024A8B4070
:10092000106903431361C2E70010024008B5FFF7E6
:1009300091FF012202210320FFF7A8FF01220721D6
:100940000020FFF7D1FE012207210020FFF732FF30
:10095000FFF7C1FC00210846FFF7F9FC4120FFF733
:10096000F4FC4FF4FA70FFF7A5FC07210020FFF715
:100970005DFFF6E70D488546AFF300800C480D4952
:100980000D4A002302E0D458C4500433C4188C42EA
:10099000F9D30A4A0A4C002301E013600432A24250
:1009A000FBD300F011F8FFF7C1FFFEE70050002075
:1009B00000000020000000203C0A00080000002089
:1009C000E0010020FEE7000070B500260C4D0D4C44
:1009D000641BA410A64209D100F01AF800260A4DA3
:1009E0000A4C641BA410A64205D170BD55F8043B07
:1009F00098470136EEE755F8043B98470136F2E791
:100A0000340A0008340A0008340A0008380A0008CA
:100A1000F8B500BFF8BC08BC9E467047F8B500BFEB
:080A2000F8BC08BC9E467047BB
:0C0A280069646C655461736B0000000091
:040A34005501000860
:040A38003101000880
:040000050800097571
:00000001FF
